:020000020000FC
:10000000259A249A239A2D9A2C982B9807EC0093E2
:100010007A0000E600937C00409A0F931F9307E656
:1000200010E00093C4001093C50008E10093C100E4
:1000300006E00093C2001F910F9100917A000064C6
:1000400000937A0000917A0006FDFCCF20917800A1
:10005000209179000F930F930091C00005FFFCCF12
:100060000F91022F0093C6000F930091C00005FF6F
:10007000FCCF0F910F912F938F939F9324E68EE3E4
:100080009CE90197F1F72A95D1F700009F918F9194
:100090002F912E3B20F42D9A2C982B98CECF2D9873
:0600A0002C9A2B9ACACF36
:00000001FF
