:020000020000FC
:10000000259A249A239A2D9A2C982B9807EC0093E2
:100010007A0000E600937C00409A0F931F9307E656
:1000200010E00093C4001093C50008E10093C100E4
:1000300006E00093C2001F910F9120E330E300E33C
:100040000091C00007FF03C00091C60001C000E09E
:10005000402F403379F0413379F04233F1F04333AC
:1000600009F1203321F1213349F02233B1F0233358
:10007000C9F01DC020E3E3CF21E3E1CF2F938F939D
:100080009F9324E68EE39CE90197F1F72A95D1F737
:1000900000009F918F912F91D2CF22E32D982C9A1F
:1000A0002B9ACDCF23E32D9A2C982B98C8CF009173
:1000B0007A00006400937A0000917A0006FDFCCF7C
:1000C00000917800009179000F930F930091C00088
:1000D00005FFFCCF0F91002F0093C6000F930091F6
:1000E000C00005FFFCCF0F910F912F938F939F932B
:1000F00024E68EE39CE90197F1F72A95D1F70000F9
:100100009F918F912F910E3B20F42D9A2C982B9834
:0A01100096CF2D982C9A2B9A92CFCF
:00000001FF
