:020000020000FC
:10000000259A249A239A2D9A2C982B9807EC0093E2
:100010007A0000E600937C00409A0F931F9307E656
:1000200010E00093C4001093C50008E10093C100E4
:1000300006E00093C2001F910F9100917A000064C6
:1000400000937A0000917A0006FDFCCF20917800A1
:1000500020917900FF920F931F932F933F93CF939B
:10006000DF93EF93022F302F0F930091C00005FF15
:10007000FCCF0F91C0E0D0E0E0E01AE02F93FF1832
:1000800029E0001F2A9509F408C0FF1CF11A18F492
:10009000F10E8894F6CF0894F4CF2F91CF2D1AE06B
:1000A0002F93FF1829E0001F2A9509F408C0FF1CB0
:1000B000F11A18F4F10E8894F6CF0894F4CF2F912A
:1000C000DF2D1AE02F93FF1829E0001F2A9509F46D
:1000D00008C0FF1CF11A18F4F10E8894F6CF0894AA
:1000E000F4CF2F91EF2D20E010E3203029F02130C4
:1000F00041F0223059F01DC03436C8F0E10F0E2F08
:1001000008C03A30A0F0D10F0D2F03C0C10F0C2F43
:1001100000C00F930091C00005FFFCCF0F9100932A
:10012000C6000F930091C00005FFFCCF0F912395EF
:10013000DCCFEF91DF91CF913F912F911F910F91E4
:10014000FF900F930091C00005FFFCCF0DE00093DE
:10015000C6000091C00005FFFCCF0AE00093C60076
:100160000F912F938F939F9324E68EE39CE9019741
:10017000F1F72A95D1F700009F918F912F91283C9C
:1001800020F42D9A2C982B9858CF2D982C9A2B9A96
:0201900054CF4A
:00000001FF
